{
  "contractName": "ProofOfExistence3",
  "abi": [
    {
      "constant": true,
      "inputs": [],
      "name": "totalRecords",
      "outputs": [
        {
          "name": "",
          "type": "uint256"
        }
      ],
      "payable": false,
      "stateMutability": "view",
      "type": "function",
      "signature": "0x125f8974"
    },
    {
      "constant": true,
      "inputs": [],
      "name": "owner",
      "outputs": [
        {
          "name": "",
          "type": "address"
        }
      ],
      "payable": false,
      "stateMutability": "view",
      "type": "function",
      "signature": "0x8da5cb5b"
    },
    {
      "inputs": [],
      "payable": false,
      "stateMutability": "nonpayable",
      "type": "constructor",
      "signature": "constructor"
    },
    {
      "anonymous": false,
      "inputs": [
        {
          "indexed": true,
          "name": "id",
          "type": "uint256"
        },
        {
          "indexed": false,
          "name": "documentHash",
          "type": "bytes32"
        }
      ],
      "name": "ProofCreated",
      "type": "event",
      "signature": "0xfbbf8dad2632e75bc114426ca0d629c0beb6c4531599e68d148c70fbb4ffae6f"
    },
    {
      "anonymous": false,
      "inputs": [
        {
          "indexed": false,
          "name": "name",
          "type": "string"
        },
        {
          "indexed": false,
          "name": "documentHash",
          "type": "bytes32"
        }
      ],
      "name": "ProofCreatedByName",
      "type": "event",
      "signature": "0xde71e38cb0d58ae3a439743e510cb58ebccd2aeb0872ba8c5c54b7b283a295ae"
    },
    {
      "constant": false,
      "inputs": [
        {
          "name": "id",
          "type": "uint256"
        },
        {
          "name": "documentHash",
          "type": "bytes32"
        }
      ],
      "name": "notarizeHash",
      "outputs": [],
      "payable": false,
      "stateMutability": "nonpayable",
      "type": "function",
      "signature": "0x15ca41c3"
    },
    {
      "constant": false,
      "inputs": [
        {
          "name": "id",
          "type": "uint256"
        },
        {
          "name": "document",
          "type": "string"
        }
      ],
      "name": "notarizeDocument",
      "outputs": [],
      "payable": false,
      "stateMutability": "nonpayable",
      "type": "function",
      "signature": "0x3cbf370f"
    },
    {
      "constant": false,
      "inputs": [
        {
          "name": "name",
          "type": "string"
        },
        {
          "name": "document",
          "type": "string"
        }
      ],
      "name": "notarizeDocumentByName",
      "outputs": [],
      "payable": false,
      "stateMutability": "nonpayable",
      "type": "function",
      "signature": "0xc73c4d27"
    },
    {
      "constant": true,
      "inputs": [
        {
          "name": "id",
          "type": "uint256"
        },
        {
          "name": "documentHash",
          "type": "bytes32"
        }
      ],
      "name": "doesProofExist",
      "outputs": [
        {
          "name": "",
          "type": "bool"
        }
      ],
      "payable": false,
      "stateMutability": "view",
      "type": "function",
      "signature": "0xaf519bf5"
    },
    {
      "constant": true,
      "inputs": [
        {
          "name": "id",
          "type": "uint256"
        }
      ],
      "name": "getProof",
      "outputs": [
        {
          "name": "",
          "type": "bytes32"
        }
      ],
      "payable": false,
      "stateMutability": "view",
      "type": "function",
      "signature": "0x11149ada"
    },
    {
      "constant": true,
      "inputs": [
        {
          "name": "name",
          "type": "string"
        }
      ],
      "name": "getProofByName",
      "outputs": [
        {
          "name": "",
          "type": "bytes32"
        }
      ],
      "payable": false,
      "stateMutability": "view",
      "type": "function",
      "signature": "0x7b9a8f34"
    },
    {
      "constant": true,
      "inputs": [],
      "name": "getAllProofs",
      "outputs": [
        {
          "name": "",
          "type": "bytes32[]"
        }
      ],
      "payable": false,
      "stateMutability": "view",
      "type": "function",
      "signature": "0x54d7ba3f"
    }
  ],
  "bytecode": "0x608060405234801561001057600080fd5b5033600160006101000a81548173ffffffffffffffffffffffffffffffffffffffff021916908373ffffffffffffffffffffffffffffffffffffffff160217905550610ef5806100616000396000f3fe608060405260043610610099576000357c0100000000000000000000000000000000000000000000000000000000900463ffffffff16806311149ada1461009e578063125f8974146100ed57806315ca41c3146101185780633cbf370f1461015d57806354d7ba3f1461022f5780637b9a8f341461029b5780638da5cb5b14610377578063af519bf5146103ce578063c73c4d271461042b575b600080fd5b3480156100aa57600080fd5b506100d7600480360360208110156100c157600080fd5b810190808035906020019092919050505061058a565b6040518082815260200191505060405180910390f35b3480156100f957600080fd5b506101026105a7565b6040518082815260200191505060405180910390f35b34801561012457600080fd5b5061015b6004803603604081101561013b57600080fd5b8101908080359060200190929190803590602001909291905050506105ad565b005b34801561016957600080fd5b5061022d6004803603604081101561018057600080fd5b8101908080359060200190929190803590602001906401000000008111156101a757600080fd5b8201836020820111156101b957600080fd5b803590602001918460018302840111640100000000831117156101db57600080fd5b91908080601f016020809104026020016040519081016040528093929190818152602001838380828437600081840152601f19601f820116905080830192505050505050509192919290505050610785565b005b34801561023b57600080fd5b50610244610a6e565b6040518080602001828103825283818151815260200191508051906020019060200280838360005b8381101561028757808201518184015260208101905061026c565b505050509050019250505060405180910390f35b3480156102a757600080fd5b50610361600480360360208110156102be57600080fd5b81019080803590602001906401000000008111156102db57600080fd5b8201836020820111156102ed57600080fd5b8035906020019184600183028401116401000000008311171561030f57600080fd5b91908080601f016020809104026020016040519081016040528093929190818152602001838380828437600081840152601f19601f820116905080830192505050505050509192919290505050610afa565b6040518082815260200191505060405180910390f35b34801561038357600080fd5b5061038c610b6f565b604051808273ffffffffffffffffffffffffffffffffffffffff1673ffffffffffffffffffffffffffffffffffffffff16815260200191505060405180910390f35b3480156103da57600080fd5b50610411600480360360408110156103f157600080fd5b810190808035906020019092919080359060200190929190505050610b95565b604051808215151515815260200191505060405180910390f35b34801561043757600080fd5b506105886004803603604081101561044e57600080fd5b810190808035906020019064010000000081111561046b57600080fd5b82018360208201111561047d57600080fd5b8035906020019184600183028401116401000000008311171561049f57600080fd5b91908080601f016020809104026020016040519081016040528093929190818152602001838380828437600081840152601f19601f8201169050808301925050505050505091929192908035906020019064010000000081111561050257600080fd5b82018360208201111561051457600080fd5b8035906020019184600183028401116401000000008311171561053657600080fd5b91908080601f016020809104026020016040519081016040528093929190818152602001838380828437600081840152601f19601f820116905080830192505050505050509192919290505050610bb5565b005b600060026000838152602001908152602001600020549050919050565b60005481565b600160009054906101000a900473ffffffffffffffffffffffffffffffffffffffff1673ffffffffffffffffffffffffffffffffffffffff163373ffffffffffffffffffffffffffffffffffffffff16141515610698576040517f08c379a00000000000000000000000000000000000000000000000000000000081526004018080602001828103825260328152602001807f4f6e6c7920746865206f776e657220697320616c6c6f77656420746f2061636381526020017f65737320746869732066756e6374696f6e2e000000000000000000000000000081525060400191505060405180910390fd5b8160006002600083815260200190815260200160002054141515610724576040517f08c379a000000000000000000000000000000000000000000000000000000000815260040180806020018281038252601b8152602001807f4e6f20686173682065786973747320666f7220746869732069642e000000000081525060200191505060405180910390fd5b816002600085815260200190815260200160002081905550600160005401600081905550827ffbbf8dad2632e75bc114426ca0d629c0beb6c4531599e68d148c70fbb4ffae6f836040518082815260200191505060405180910390a2505050565b600160009054906101000a900473ffffffffffffffffffffffffffffffffffffffff1673ffffffffffffffffffffffffffffffffffffffff163373ffffffffffffffffffffffffffffffffffffffff16141515610870576040517f08c379a00000000000000000000000000000000000000000000000000000000081526004018080602001828103825260328152602001807f4f6e6c7920746865206f776e657220697320616c6c6f77656420746f2061636381526020017f65737320746869732066756e6374696f6e2e000000000000000000000000000081525060400191505060405180910390fd5b81600060026000838152602001908152602001600020541415156108fc576040517f08c379a000000000000000000000000000000000000000000000000000000000815260040180806020018281038252601b8152602001807f4e6f20686173682065786973747320666f7220746869732069642e000000000081525060200191505060405180910390fd5b60006002836040516020018082805190602001908083835b6020831015156109395780518252602082019150602081019050602083039250610914565b6001836020036101000a0380198251168184511680821785525050505050509050019150506040516020818303038152906040526040518082805190602001908083835b6020831015156109a2578051825260208201915060208101905060208303925061097d565b6001836020036101000a038019825116818451168082178552505050505050905001915050602060405180830381855afa1580156109e4573d6000803e3d6000fd5b5050506040513d60208110156109f957600080fd5b81019080805190602001909291905050509050806002600086815260200190815260200160002081905550600160005401600081905550837ffbbf8dad2632e75bc114426ca0d629c0beb6c4531599e68d148c70fbb4ffae6f826040518082815260200191505060405180910390a250505050565b606080600054604051908082528060200260200182016040528015610aa25781602001602082028038833980820191505090505b5090506000600190505b6003811015610af25760026000828152602001908152602001600020548282815181101515610ad757fe5b90602001906020020181815250508080600101915050610aac565b508091505090565b60006003826040518082805190602001908083835b602083101515610b345780518252602082019150602081019050602083039250610b0f565b6001836020036101000a0380198251168184511680821785525050505050509050019150509081526020016040518091039020549050919050565b600160009054906101000a900473ffffffffffffffffffffffffffffffffffffffff1681565b600081600260008581526020019081526020016000205414905092915050565b600160009054906101000a900473ffffffffffffffffffffffffffffffffffffffff1673ffffffffffffffffffffffffffffffffffffffff163373ffffffffffffffffffffffffffffffffffffffff16141515610ca0576040517f08c379a00000000000000000000000000000000000000000000000000000000081526004018080602001828103825260328152602001807f4f6e6c7920746865206f776e657220697320616c6c6f77656420746f2061636381526020017f65737320746869732066756e6374696f6e2e000000000000000000000000000081525060400191505060405180910390fd5b60006002826040516020018082805190602001908083835b602083101515610cdd5780518252602082019150602081019050602083039250610cb8565b6001836020036101000a0380198251168184511680821785525050505050509050019150506040516020818303038152906040526040518082805190602001908083835b602083101515610d465780518252602082019150602081019050602083039250610d21565b6001836020036101000a038019825116818451168082178552505050505050905001915050602060405180830381855afa158015610d88573d6000803e3d6000fd5b5050506040513d6020811015610d9d57600080fd5b81019080805190602001909291905050509050806003846040518082805190602001908083835b602083101515610de95780518252602082019150602081019050602083039250610dc4565b6001836020036101000a0380198251168184511680821785525050505050509050019150509081526020016040518091039020819055507fde71e38cb0d58ae3a439743e510cb58ebccd2aeb0872ba8c5c54b7b283a295ae83826040518080602001838152602001828103825284818151815260200191508051906020019080838360005b83811015610e89578082015181840152602081019050610e6e565b50505050905090810190601f168015610eb65780820380516001836020036101000a031916815260200191505b50935050505060405180910390a150505056fea165627a7a7230582084e433f2932ba8c92b44e09cde0fa826d83ccf9675e7489b5a8e82989edf5d360029",
  "source": "pragma solidity ^0.5.0;\n\ncontract ProofOfExistence3 {\n    \n    event ProofCreated(\n        uint256 indexed id,\n        bytes32 documentHash\n    );\n\n    event ProofCreatedByName(\n        string name,\n        bytes32 documentHash\n    );\n    uint public totalRecords;\n\n    address public owner;\n  \n    mapping (uint256 => bytes32) hashesById;\n    mapping (string => bytes32) hashesByName;\n\n    modifier onlyOwner() {\n        require(msg.sender == owner, \"Only the owner is allowed to access this function.\");\n        _;\n    }\n\n    modifier noHashExistsYet(uint256 id) {\n        require(hashesById[id] == \"\", \"No hash exists for this id.\");\n        _;\n    }\n\n    constructor() public {\n        owner = msg.sender;\n    }\n\n    function notarizeHash(uint256 id, bytes32 documentHash) public onlyOwner noHashExistsYet(id) {\n        hashesById[id] = documentHash;\n\ttotalRecords = totalRecords+1;\n\n        emit ProofCreated(id, documentHash);\n    }\n    function notarizeDocument(uint256 id, string memory document) public onlyOwner noHashExistsYet(id) {\n        bytes32 documentHash = sha256(abi.encodePacked(document));\n        //hashesById[id] = sha256(abi.encodePacked(document));\n        hashesById[id] = documentHash;\n\ttotalRecords = totalRecords+1;\n\n        emit ProofCreated(id, documentHash);\n    }\n\n    function notarizeDocumentByName(string memory name, string memory document) public onlyOwner {\n        bytes32 documentHash = sha256(abi.encodePacked(document));\n        hashesByName[name] = documentHash;\n        emit ProofCreatedByName(name, documentHash);\n    }\n\n    function doesProofExist(uint256 id, bytes32 documentHash) public view returns (bool) {\n        return hashesById[id] == documentHash;\n    }\n    \n    function getProof(uint256 id) public view returns ( bytes32 ) { \n\treturn hashesById[id];\n    }\n\n    function getProofByName(string memory name ) public view returns ( bytes32 ) { \n\treturn hashesByName[name];\n    }\n\n    function getAllProofs() public view returns (bytes32[] memory ) {\n    \tbytes32[] memory ret = new bytes32[](totalRecords);\n    \tfor (uint i = 1; i < 3; i++) {\n        \tret[i] = hashesById[i];\n    \t}\n    return ret;\n    }\n\n}\n",
  "sourcePath": "/home/kartikeya/Ethereum/Ethereum/Consensys/proof-of-existence/contracts/ProofOfExistence3.sol",
  "compiler": {
    "name": "solc",
    "version": "0.5.0+commit.1d4f565a.Emscripten.clang"
  },
  "schemaVersion": "3.0.1",
  "updatedAt": "2019-09-02T08:49:25.626Z",
  "devdoc": {
    "methods": {}
  },
  "userdoc": {
    "methods": {}
  }
}