{
  "contractName": "Banker",
  "abi": [
    {
      "constant": true,
      "inputs": [],
      "name": "abc_1",
      "outputs": [
        {
          "name": "",
          "type": "uint256"
        }
      ],
      "payable": false,
      "stateMutability": "view",
      "type": "function"
    },
    {
      "inputs": [
        {
          "name": "_silverCoinAddress",
          "type": "address"
        }
      ],
      "payable": false,
      "stateMutability": "nonpayable",
      "type": "constructor"
    }
  ],
  "bytecode": "0x6060604052341561000f57600080fd5b6040516020806101ca83398101604052808051906020019091905050806000806101000a81548173ffffffffffffffffffffffffffffffffffffffff021916908373ffffffffffffffffffffffffffffffffffffffff1602179055505061014f8061007b6000396000f300606060405260043610610041576000357c0100000000000000000000000000000000000000000000000000000000900463ffffffff1680634c54cd8714610046575b600080fd5b341561005157600080fd5b61005961006f565b6040518082815260200191505060405180910390f35b6000806000809054906101000a900473ffffffffffffffffffffffffffffffffffffffff1690508073ffffffffffffffffffffffffffffffffffffffff1663922779336000604051602001526040518163ffffffff167c0100000000000000000000000000000000000000000000000000000000028152600401602060405180830381600087803b151561010257600080fd5b6102c65a03f1151561011357600080fd5b50505060405180519050915050905600a165627a7a723058209903e21caf12d26375084be1f716fc2f5ae7d9b1a20c190452ed9f56be8c680f0029",
  "source": "pragma solidity ^0.4.11;\n\nimport \"./SilverCoin.sol\";\n\ncontract Banker {\n\n    address silverCoinAddress;\n    \n    function Banker(address _silverCoinAddress) {\n        silverCoinAddress = _silverCoinAddress;\n    }\n\n    function abc_1() constant returns (uint) {\n    \n        SilverCoin instanceSilverCoin = SilverCoin(silverCoinAddress);\n    \n        return instanceSilverCoin.abc();\n    }\n}\n",
  "sourcePath": "/home/kartikeya/Ethereum/Ethereum/solidity-experiments/contracts/Banker.sol",
  "compiler": {
    "name": "solc",
    "version": "0.4.18+commit.9cf6e910.Emscripten.clang"
  },
  "schemaVersion": "1.0.1",
  "updatedAt": "2017-12-27T13:45:08.797Z"
}