{
  "contractName": "MyToken",
  "abi": [
    {
      "constant": true,
      "inputs": [],
      "name": "name",
      "outputs": [
        {
          "name": "",
          "type": "string"
        }
      ],
      "payable": false,
      "stateMutability": "view",
      "type": "function"
    },
    {
      "constant": true,
      "inputs": [],
      "name": "decimals",
      "outputs": [
        {
          "name": "",
          "type": "uint8"
        }
      ],
      "payable": false,
      "stateMutability": "view",
      "type": "function"
    },
    {
      "constant": true,
      "inputs": [
        {
          "name": "",
          "type": "address"
        }
      ],
      "name": "balanceOf",
      "outputs": [
        {
          "name": "",
          "type": "uint256"
        }
      ],
      "payable": false,
      "stateMutability": "view",
      "type": "function"
    },
    {
      "constant": true,
      "inputs": [],
      "name": "abc",
      "outputs": [
        {
          "name": "",
          "type": "uint256"
        }
      ],
      "payable": false,
      "stateMutability": "view",
      "type": "function"
    },
    {
      "constant": true,
      "inputs": [
        {
          "name": "_sender",
          "type": "address"
        }
      ],
      "name": "totalCoinsFor",
      "outputs": [
        {
          "name": "",
          "type": "uint256"
        }
      ],
      "payable": false,
      "stateMutability": "view",
      "type": "function"
    },
    {
      "constant": true,
      "inputs": [],
      "name": "symbol",
      "outputs": [
        {
          "name": "",
          "type": "string"
        }
      ],
      "payable": false,
      "stateMutability": "view",
      "type": "function"
    },
    {
      "constant": false,
      "inputs": [
        {
          "name": "_to",
          "type": "address"
        },
        {
          "name": "_value",
          "type": "uint256"
        }
      ],
      "name": "transfer",
      "outputs": [],
      "payable": false,
      "stateMutability": "nonpayable",
      "type": "function"
    },
    {
      "constant": true,
      "inputs": [
        {
          "name": "user",
          "type": "address"
        }
      ],
      "name": "tokenDetails",
      "outputs": [
        {
          "name": "",
          "type": "uint256"
        },
        {
          "name": "",
          "type": "string"
        },
        {
          "name": "",
          "type": "string"
        }
      ],
      "payable": false,
      "stateMutability": "view",
      "type": "function"
    },
    {
      "inputs": [
        {
          "name": "initialSupply",
          "type": "uint256"
        },
        {
          "name": "tokenName",
          "type": "string"
        },
        {
          "name": "decimalUnits",
          "type": "uint8"
        },
        {
          "name": "tokenSymbol",
          "type": "string"
        }
      ],
      "payable": false,
      "stateMutability": "nonpayable",
      "type": "constructor"
    },
    {
      "anonymous": false,
      "inputs": [
        {
          "indexed": true,
          "name": "from",
          "type": "address"
        },
        {
          "indexed": true,
          "name": "to",
          "type": "address"
        },
        {
          "indexed": false,
          "name": "value",
          "type": "uint256"
        }
      ],
      "name": "Transfer",
      "type": "event"
    }
  ],
  "bytecode": "0x6060604052341561000f57600080fd5b604051610b1c380380610b1c83398101604052808051906020019091908051820191906020018051906020019091908051820191905050600084141561005657620f424093505b83600360003373ffffffffffffffffffffffffffffffffffffffff1673ffffffffffffffffffffffffffffffffffffffff1681526020019081526020016000208190555082600090805190602001906100b09291906100ec565b5080600190805190602001906100c79291906100ec565b5081600260006101000a81548160ff021916908360ff16021790555050505050610191565b828054600181600116156101000203166002900490600052602060002090601f016020900481019282601f1061012d57805160ff191683800117855561015b565b8280016001018555821561015b579182015b8281111561015a57825182559160200191906001019061013f565b5b509050610168919061016c565b5090565b61018e91905b8082111561018a576000816000905550600101610172565b5090565b90565b61097c806101a06000396000f30060606040526004361061008e576000357c0100000000000000000000000000000000000000000000000000000000900463ffffffff16806306fdde0314610093578063313ce5671461012157806370a0823114610150578063922779331461019d57806392e3dfe4146101c657806395d89b4114610213578063a9059cbb146102a1578063dd4be683146102e3575b600080fd5b341561009e57600080fd5b6100a6610408565b6040518080602001828103825283818151815260200191508051906020019080838360005b838110156100e65780820151818401526020810190506100cb565b50505050905090810190601f1680156101135780820380516001836020036101000a031916815260200191505b509250505060405180910390f35b341561012c57600080fd5b6101346104a6565b604051808260ff1660ff16815260200191505060405180910390f35b341561015b57600080fd5b610187600480803573ffffffffffffffffffffffffffffffffffffffff169060200190919050506104b9565b6040518082815260200191505060405180910390f35b34156101a857600080fd5b6101b06104d1565b6040518082815260200191505060405180910390f35b34156101d157600080fd5b6101fd600480803573ffffffffffffffffffffffffffffffffffffffff169060200190919050506104da565b6040518082815260200191505060405180910390f35b341561021e57600080fd5b610226610523565b6040518080602001828103825283818151815260200191508051906020019080838360005b8381101561026657808201518184015260208101905061024b565b50505050905090810190601f1680156102935780820380516001836020036101000a031916815260200191505b509250505060405180910390f35b34156102ac57600080fd5b6102e1600480803573ffffffffffffffffffffffffffffffffffffffff169060200190919080359060200190919050506105c1565b005b34156102ee57600080fd5b61031a600480803573ffffffffffffffffffffffffffffffffffffffff169060200190919050506107a1565b604051808481526020018060200180602001838103835285818151815260200191508051906020019080838360005b83811015610364578082015181840152602081019050610349565b50505050905090810190601f1680156103915780820380516001836020036101000a031916815260200191505b50838103825284818151815260200191508051906020019080838360005b838110156103ca5780820151818401526020810190506103af565b50505050905090810190601f1680156103f75780820380516001836020036101000a031916815260200191505b509550505050505060405180910390f35b60008054600181600116156101000203166002900480601f01602080910402602001604051908101604052809291908181526020018280546001816001161561010002031660029004801561049e5780601f106104735761010080835404028352916020019161049e565b820191906000526020600020905b81548152906001019060200180831161048157829003601f168201915b505050505081565b600260009054906101000a900460ff1681565b60036020528060005260406000206000915090505481565b60006001905090565b6000600360008373ffffffffffffffffffffffffffffffffffffffff1673ffffffffffffffffffffffffffffffffffffffff168152602001908152602001600020549050919050565b60018054600181600116156101000203166002900480601f0160208091040260200160405190810160405280929190818152602001828054600181600116156101000203166002900480156105b95780601f1061058e576101008083540402835291602001916105b9565b820191906000526020600020905b81548152906001019060200180831161059c57829003601f168201915b505050505081565b80600360003373ffffffffffffffffffffffffffffffffffffffff1673ffffffffffffffffffffffffffffffffffffffff168152602001908152602001600020541015151561060f57600080fd5b600360008373ffffffffffffffffffffffffffffffffffffffff1673ffffffffffffffffffffffffffffffffffffffff1681526020019081526020016000205481600360008573ffffffffffffffffffffffffffffffffffffffff1673ffffffffffffffffffffffffffffffffffffffff16815260200190815260200160002054011015151561069e57600080fd5b80600360003373ffffffffffffffffffffffffffffffffffffffff1673ffffffffffffffffffffffffffffffffffffffff1681526020019081526020016000206000828254039250508190555080600360008473ffffffffffffffffffffffffffffffffffffffff1673ffffffffffffffffffffffffffffffffffffffff168152602001908152602001600020600082825401925050819055508173ffffffffffffffffffffffffffffffffffffffff163373ffffffffffffffffffffffffffffffffffffffff167fddf252ad1be2c89b69c2b068fc378daa952ba7f163c4a11628f55a4df523b3ef836040518082815260200191505060405180910390a35050565b60006107ab61093c565b6107b361093c565b600360008573ffffffffffffffffffffffffffffffffffffffff1673ffffffffffffffffffffffffffffffffffffffff1681526020019081526020016000205460006001818054600181600116156101000203166002900480601f01602080910402602001604051908101604052809291908181526020018280546001816001161561010002031660029004801561088c5780601f106108615761010080835404028352916020019161088c565b820191906000526020600020905b81548152906001019060200180831161086f57829003601f168201915b50505050509150808054600181600116156101000203166002900480601f0160208091040260200160405190810160405280929190818152602001828054600181600116156101000203166002900480156109285780601f106108fd57610100808354040283529160200191610928565b820191906000526020600020905b81548152906001019060200180831161090b57829003601f168201915b505050505090509250925092509193909250565b6020604051908101604052806000815250905600a165627a7a723058205048b1277d65c954e6b0f99c5b4b03de8fc7155d147c28dbb9c01922fc5bc6b60029",
  "source": "pragma solidity ^0.4.11;\ncontract MyToken {\n    /* This creates an array with all balances */\n\t\n    string public name;\n    string public symbol;\n    uint8 public decimals;\n    mapping (address => uint256) public balanceOf;\n\n    event Transfer(address indexed from , address indexed to, uint256 value);\n\n    /* Initializes contract with initial supply tokens to the creator of the contract */\n    function MyToken(\n        uint256 initialSupply, string tokenName,uint8 decimalUnits, string tokenSymbol\n        ) {\n        if(initialSupply == 0 ) initialSupply = 1000000;\n        balanceOf[msg.sender] = initialSupply;              // Give the creator all initial tokens\n        name  = tokenName;\n\tsymbol = tokenSymbol;\n        decimals = decimalUnits;\n    }\n\n    /* Send coins */\n    function transfer(address _to, uint256 _value) {\n        require(balanceOf[msg.sender] >= _value);           // Check if the sender has enough\n\n        require(balanceOf[_to] + _value >= balanceOf[_to]); // Check for overflows\n        balanceOf[msg.sender] -= _value;                    // Subtract from the sender\n        balanceOf[_to] += _value;                           // Add the same to the recipient\n\tTransfer(msg.sender,_to,_value);\n    }\n\n  function totalCoinsFor(address _sender) view public returns (uint256) {\n    return balanceOf[_sender];\n  }\n\n    function abc() constant returns (uint) {\n        return 1;\n    }\n\n  function tokenDetails(address user) view public returns (uint256, string,string) {\n    return (balanceOf[user],name,symbol);\n  }\n\n}\n\n",
  "sourcePath": "/home/kartikeya/Ethereum/Ethereum/solidity-experiments/contracts/MyToken.sol",
  "compiler": {
    "name": "solc",
    "version": "0.4.18+commit.9cf6e910.Emscripten.clang"
  },
  "schemaVersion": "1.0.1",
  "updatedAt": "2017-12-28T13:07:15.936Z"
}