{
  "contractName": "MyVoting",
  "abi": [
    {
      "constant": true,
      "inputs": [
        {
          "name": "candidate",
          "type": "bytes32"
        }
      ],
      "name": "validateCandidate",
      "outputs": [
        {
          "name": "",
          "type": "bool"
        }
      ],
      "payable": false,
      "stateMutability": "view",
      "type": "function"
    },
    {
      "constant": true,
      "inputs": [
        {
          "name": "candidate",
          "type": "bytes32"
        }
      ],
      "name": "getVotes",
      "outputs": [
        {
          "name": "",
          "type": "uint8"
        }
      ],
      "payable": false,
      "stateMutability": "view",
      "type": "function"
    },
    {
      "constant": false,
      "inputs": [
        {
          "name": "candidate",
          "type": "bytes32"
        }
      ],
      "name": "voteCandidate",
      "outputs": [],
      "payable": false,
      "stateMutability": "nonpayable",
      "type": "function"
    },
    {
      "constant": true,
      "inputs": [
        {
          "name": "",
          "type": "uint256"
        }
      ],
      "name": "candidateList",
      "outputs": [
        {
          "name": "",
          "type": "bytes32"
        }
      ],
      "payable": false,
      "stateMutability": "view",
      "type": "function"
    },
    {
      "constant": true,
      "inputs": [
        {
          "name": "",
          "type": "bytes32"
        }
      ],
      "name": "voteReceived",
      "outputs": [
        {
          "name": "",
          "type": "uint8"
        }
      ],
      "payable": false,
      "stateMutability": "view",
      "type": "function"
    },
    {
      "inputs": [
        {
          "name": "list",
          "type": "bytes32[]"
        }
      ],
      "payable": false,
      "stateMutability": "nonpayable",
      "type": "constructor"
    }
  ],
  "bytecode": "0x6060604052341561000f57600080fd5b6040516103da3803806103da833981016040528080518201919050508060019080519060200190610041929190610048565b50506100c0565b82805482825590600052602060002090810192821561008a579160200282015b82811115610089578251829060001916905591602001919060010190610068565b5b509050610097919061009b565b5090565b6100bd91905b808211156100b95760008160009055506001016100a1565b5090565b90565b61030b806100cf6000396000f30060606040526004361061006d576000357c0100000000000000000000000000000000000000000000000000000000900463ffffffff1680632a0678b0146100725780634c051100146100b1578063831b7503146100f2578063b13c744b14610119578063ba86cbcf14610158575b600080fd5b341561007d57600080fd5b610097600480803560001916906020019091905050610199565b604051808215151515815260200191505060405180910390f35b34156100bc57600080fd5b6100d66004808035600019169060200190919050506101f9565b604051808260ff1660ff16815260200191505060405180910390f35b34156100fd57600080fd5b61011760048080356000191690602001909190505061023e565b005b341561012457600080fd5b61013a600480803590602001909190505061029b565b60405180826000191660001916815260200191505060405180910390f35b341561016357600080fd5b61017d6004808035600019169060200190919050506102bf565b604051808260ff1660ff16815260200191505060405180910390f35b600080600090505b6001805490508110156101ee576001818154811015156101bd57fe5b90600052602060002090015460001916836000191614156101e157600191506101f3565b80806001019150506101a1565b600091505b50919050565b600061020482610199565b151561020f57600080fd5b600080836000191660001916815260200190815260200160002060009054906101000a900460ff169050919050565b61024781610199565b151561025257600080fd5b6001600080836000191660001916815260200190815260200160002060008282829054906101000a900460ff160192506101000a81548160ff021916908360ff16021790555050565b6001818154811015156102aa57fe5b90600052602060002090016000915090505481565b60006020528060005260406000206000915054906101000a900460ff16815600a165627a7a723058202544b37e972307e1143351911924d6bbd0b96c4ffdaa198b6a209b5815e14c540029",
  "source": "pragma solidity ^0.4.4;\n\n//https://medium.com/@mvmurthy/full-stack-hello-world-voting-ethereum-dapp-tutorial-part-1-40d2d0d807c2\ncontract MyVoting\n{\n  mapping (bytes32 => uint8)  public voteReceived;\n\n\n bytes32[] public candidateList;\n\n  //function MyVoting(bytes32[] list) { \n  function MyVoting(bytes32[] list) { \n        candidateList = list;\n    // constructor\n  }\n\n\nfunction getVotes( bytes32 candidate) view public returns (uint8) {\n        require(validateCandidate(candidate));\n        return voteReceived[candidate];\n}\n\nfunction voteCandidate(bytes32 candidate) public\n{\n        require(validateCandidate(candidate));\n        voteReceived[candidate] += 1;\n}\n\n\nfunction validateCandidate( bytes32 candidate) view public returns (bool) {\n        for(uint i=0;i<candidateList.length;i++)\n        {\n                if(candidate==candidateList[i]){\n                return true;\n\t\t}\n        }\n        return false;\n}\n\n}\n\n",
  "sourcePath": "/home/kartikeya/Ethereum/Ethereum/solidity-experiments/contracts/MyVoting.sol",
  "compiler": {
    "name": "solc",
    "version": "0.4.18+commit.9cf6e910.Emscripten.clang"
  },
  "schemaVersion": "1.0.1",
  "updatedAt": "2017-12-25T07:16:33.226Z"
}