{
  "contractName": "SilverCoin",
  "abi": [
    {
      "constant": true,
      "inputs": [],
      "name": "abc",
      "outputs": [
        {
          "name": "",
          "type": "uint256"
        }
      ],
      "payable": false,
      "stateMutability": "view",
      "type": "function"
    }
  ],
  "bytecode": "0x60606040523415600e57600080fd5b609f8061001c6000396000f300606060405260043610603f576000357c0100000000000000000000000000000000000000000000000000000000900463ffffffff16806392277933146044575b600080fd5b3415604e57600080fd5b6054606a565b6040518082815260200191505060405180910390f35b600060019050905600a165627a7a72305820cea5491b01695012e74a4283c744424f16d3e6ad5e62d1f46f6a13c72545337b0029",
  "source": "pragma solidity ^0.4.11;\n\ncontract SilverCoin {\n    function abc() constant returns (uint) {\n        return 1;\n    }\n}\n",
  "sourcePath": "/home/kartikeya/Ethereum/Ethereum/solidity-experiments/contracts/SilverCoin.sol",
  "compiler": {
    "name": "solc",
    "version": "0.4.18+commit.9cf6e910.Emscripten.clang"
  },
  "schemaVersion": "1.0.1",
  "updatedAt": "2017-12-27T13:45:08.796Z"
}